{
  "contractName": "Notaria",
  "abi": [
    {
      "inputs": [
        {
          "internalType": "contract IERC20",
          "name": "_token",
          "type": "address"
        }
      ],
      "stateMutability": "nonpayable",
      "type": "constructor"
    },
    {
      "anonymous": false,
      "inputs": [
        {
          "indexed": false,
          "internalType": "uint256",
          "name": "id",
          "type": "uint256"
        },
        {
          "indexed": false,
          "internalType": "uint256",
          "name": "precio",
          "type": "uint256"
        },
        {
          "indexed": false,
          "internalType": "string",
          "name": "nombre",
          "type": "string"
        },
        {
          "indexed": false,
          "internalType": "bool",
          "name": "estado",
          "type": "bool"
        },
        {
          "indexed": false,
          "internalType": "address",
          "name": "owner",
          "type": "address"
        }
      ],
      "name": "DocumentoAdded",
      "type": "event"
    },
    {
      "anonymous": false,
      "inputs": [
        {
          "indexed": false,
          "internalType": "uint256",
          "name": "id",
          "type": "uint256"
        },
        {
          "indexed": false,
          "internalType": "address",
          "name": "owner",
          "type": "address"
        }
      ],
      "name": "DocumentoComprado",
      "type": "event"
    },
    {
      "anonymous": false,
      "inputs": [
        {
          "indexed": false,
          "internalType": "uint256",
          "name": "id",
          "type": "uint256"
        },
        {
          "components": [
            {
              "internalType": "uint256",
              "name": "id",
              "type": "uint256"
            },
            {
              "internalType": "uint256",
              "name": "precio",
              "type": "uint256"
            },
            {
              "internalType": "string",
              "name": "nombre",
              "type": "string"
            },
            {
              "internalType": "bool",
              "name": "estado",
              "type": "bool"
            }
          ],
          "indexed": false,
          "internalType": "struct Notaria.Documento",
          "name": "documento",
          "type": "tuple"
        },
        {
          "indexed": false,
          "internalType": "string",
          "name": "nombre",
          "type": "string"
        },
        {
          "indexed": false,
          "internalType": "address",
          "name": "owner",
          "type": "address"
        },
        {
          "indexed": false,
          "internalType": "uint256",
          "name": "precio",
          "type": "uint256"
        }
      ],
      "name": "DocumentoNotariaAdded",
      "type": "event"
    },
    {
      "anonymous": false,
      "inputs": [
        {
          "indexed": false,
          "internalType": "address",
          "name": "recipient",
          "type": "address"
        }
      ],
      "name": "premioTokenDado",
      "type": "event"
    },
    {
      "inputs": [
        {
          "internalType": "uint256",
          "name": "",
          "type": "uint256"
        }
      ],
      "name": "documentos",
      "outputs": [
        {
          "internalType": "uint256",
          "name": "id",
          "type": "uint256"
        },
        {
          "internalType": "uint256",
          "name": "precio",
          "type": "uint256"
        },
        {
          "internalType": "string",
          "name": "nombre",
          "type": "string"
        },
        {
          "internalType": "bool",
          "name": "estado",
          "type": "bool"
        }
      ],
      "stateMutability": "view",
      "type": "function",
      "constant": true
    },
    {
      "inputs": [
        {
          "internalType": "uint256",
          "name": "",
          "type": "uint256"
        }
      ],
      "name": "documentosNotaria",
      "outputs": [
        {
          "internalType": "uint256",
          "name": "id",
          "type": "uint256"
        },
        {
          "components": [
            {
              "internalType": "uint256",
              "name": "id",
              "type": "uint256"
            },
            {
              "internalType": "uint256",
              "name": "precio",
              "type": "uint256"
            },
            {
              "internalType": "string",
              "name": "nombre",
              "type": "string"
            },
            {
              "internalType": "bool",
              "name": "estado",
              "type": "bool"
            }
          ],
          "internalType": "struct Notaria.Documento",
          "name": "documento",
          "type": "tuple"
        },
        {
          "internalType": "address",
          "name": "owner",
          "type": "address"
        },
        {
          "internalType": "address",
          "name": "destinatario",
          "type": "address"
        },
        {
          "internalType": "uint256",
          "name": "precio",
          "type": "uint256"
        },
        {
          "internalType": "enum Notaria.EstadoDocumentoNotaria",
          "name": "estado",
          "type": "uint8"
        }
      ],
      "stateMutability": "view",
      "type": "function",
      "constant": true
    },
    {
      "inputs": [],
      "name": "documentosNotariaCount",
      "outputs": [
        {
          "internalType": "uint256",
          "name": "",
          "type": "uint256"
        }
      ],
      "stateMutability": "view",
      "type": "function",
      "constant": true
    },
    {
      "inputs": [
        {
          "internalType": "address",
          "name": "",
          "type": "address"
        },
        {
          "internalType": "uint256",
          "name": "",
          "type": "uint256"
        }
      ],
      "name": "documentosNotariaDestinatario",
      "outputs": [
        {
          "internalType": "uint256",
          "name": "id",
          "type": "uint256"
        },
        {
          "components": [
            {
              "internalType": "uint256",
              "name": "id",
              "type": "uint256"
            },
            {
              "internalType": "uint256",
              "name": "precio",
              "type": "uint256"
            },
            {
              "internalType": "string",
              "name": "nombre",
              "type": "string"
            },
            {
              "internalType": "bool",
              "name": "estado",
              "type": "bool"
            }
          ],
          "internalType": "struct Notaria.Documento",
          "name": "documento",
          "type": "tuple"
        },
        {
          "internalType": "address",
          "name": "owner",
          "type": "address"
        },
        {
          "internalType": "address",
          "name": "destinatario",
          "type": "address"
        },
        {
          "internalType": "uint256",
          "name": "precio",
          "type": "uint256"
        },
        {
          "internalType": "enum Notaria.EstadoDocumentoNotaria",
          "name": "estado",
          "type": "uint8"
        }
      ],
      "stateMutability": "view",
      "type": "function",
      "constant": true
    },
    {
      "inputs": [
        {
          "internalType": "address",
          "name": "",
          "type": "address"
        },
        {
          "internalType": "uint256",
          "name": "",
          "type": "uint256"
        }
      ],
      "name": "documentosNotariaEmisor",
      "outputs": [
        {
          "internalType": "uint256",
          "name": "id",
          "type": "uint256"
        },
        {
          "components": [
            {
              "internalType": "uint256",
              "name": "id",
              "type": "uint256"
            },
            {
              "internalType": "uint256",
              "name": "precio",
              "type": "uint256"
            },
            {
              "internalType": "string",
              "name": "nombre",
              "type": "string"
            },
            {
              "internalType": "bool",
              "name": "estado",
              "type": "bool"
            }
          ],
          "internalType": "struct Notaria.Documento",
          "name": "documento",
          "type": "tuple"
        },
        {
          "internalType": "address",
          "name": "owner",
          "type": "address"
        },
        {
          "internalType": "address",
          "name": "destinatario",
          "type": "address"
        },
        {
          "internalType": "uint256",
          "name": "precio",
          "type": "uint256"
        },
        {
          "internalType": "enum Notaria.EstadoDocumentoNotaria",
          "name": "estado",
          "type": "uint8"
        }
      ],
      "stateMutability": "view",
      "type": "function",
      "constant": true
    },
    {
      "inputs": [],
      "name": "documentsCount",
      "outputs": [
        {
          "internalType": "uint256",
          "name": "",
          "type": "uint256"
        }
      ],
      "stateMutability": "view",
      "type": "function",
      "constant": true
    },
    {
      "inputs": [],
      "name": "owner",
      "outputs": [
        {
          "internalType": "address",
          "name": "",
          "type": "address"
        }
      ],
      "stateMutability": "view",
      "type": "function",
      "constant": true
    },
    {
      "inputs": [
        {
          "internalType": "address",
          "name": "",
          "type": "address"
        }
      ],
      "name": "totalDocumentosDestinatario",
      "outputs": [
        {
          "internalType": "uint256",
          "name": "",
          "type": "uint256"
        }
      ],
      "stateMutability": "view",
      "type": "function",
      "constant": true
    },
    {
      "inputs": [
        {
          "internalType": "address",
          "name": "",
          "type": "address"
        }
      ],
      "name": "totalDocumentosEmisor",
      "outputs": [
        {
          "internalType": "uint256",
          "name": "",
          "type": "uint256"
        }
      ],
      "stateMutability": "view",
      "type": "function",
      "constant": true
    },
    {
      "stateMutability": "payable",
      "type": "receive",
      "payable": true
    },
    {
      "inputs": [],
      "name": "ValidaDisponibilidadPremio",
      "outputs": [
        {
          "internalType": "bool",
          "name": "",
          "type": "bool"
        }
      ],
      "stateMutability": "view",
      "type": "function",
      "constant": true
    },
    {
      "inputs": [
        {
          "internalType": "uint256",
          "name": "_precio",
          "type": "uint256"
        },
        {
          "internalType": "string",
          "name": "_nombre",
          "type": "string"
        },
        {
          "internalType": "bool",
          "name": "_estado",
          "type": "bool"
        }
      ],
      "name": "AddDocumento",
      "outputs": [],
      "stateMutability": "payable",
      "type": "function",
      "payable": true
    },
    {
      "inputs": [
        {
          "internalType": "uint256",
          "name": "_idDocumento",
          "type": "uint256"
        },
        {
          "internalType": "uint256",
          "name": "_precio",
          "type": "uint256"
        },
        {
          "internalType": "address",
          "name": "_destinatario",
          "type": "address"
        }
      ],
      "name": "AddDocumentoNotaria",
      "outputs": [
        {
          "internalType": "enum Notaria.EstadoDocumentoNotaria",
          "name": "",
          "type": "uint8"
        }
      ],
      "stateMutability": "payable",
      "type": "function",
      "payable": true
    },
    {
      "inputs": [
        {
          "internalType": "uint256",
          "name": "_idDocumento",
          "type": "uint256"
        }
      ],
      "name": "AceptaDocumentoNotaria",
      "outputs": [
        {
          "internalType": "bool",
          "name": "",
          "type": "bool"
        }
      ],
      "stateMutability": "nonpayable",
      "type": "function"
    },
    {
      "inputs": [
        {
          "internalType": "uint256",
          "name": "_idDocumento",
          "type": "uint256"
        }
      ],
      "name": "FinalizaDocumentoNotaria",
      "outputs": [
        {
          "internalType": "bool",
          "name": "",
          "type": "bool"
        }
      ],
      "stateMutability": "payable",
      "type": "function",
      "payable": true
    },
    {
      "inputs": [
        {
          "internalType": "uint256",
          "name": "_idDocumento",
          "type": "uint256"
        }
      ],
      "name": "RechazaDocumentoNotaria",
      "outputs": [
        {
          "internalType": "bool",
          "name": "",
          "type": "bool"
        }
      ],
      "stateMutability": "payable",
      "type": "function",
      "payable": true
    },
    {
      "inputs": [
        {
          "internalType": "uint256",
          "name": "_idDocumento",
          "type": "uint256"
        }
      ],
      "name": "GetDocumento",
      "outputs": [
        {
          "components": [
            {
              "internalType": "uint256",
              "name": "id",
              "type": "uint256"
            },
            {
              "internalType": "uint256",
              "name": "precio",
              "type": "uint256"
            },
            {
              "internalType": "string",
              "name": "nombre",
              "type": "string"
            },
            {
              "internalType": "bool",
              "name": "estado",
              "type": "bool"
            }
          ],
          "internalType": "struct Notaria.Documento",
          "name": "doc",
          "type": "tuple"
        }
      ],
      "stateMutability": "view",
      "type": "function",
      "constant": true
    },
    {
      "inputs": [
        {
          "internalType": "uint256",
          "name": "_idDocumento",
          "type": "uint256"
        },
        {
          "internalType": "address",
          "name": "_direccion",
          "type": "address"
        }
      ],
      "name": "GetDocumentoNotariaEmisor",
      "outputs": [
        {
          "components": [
            {
              "internalType": "uint256",
              "name": "id",
              "type": "uint256"
            },
            {
              "components": [
                {
                  "internalType": "uint256",
                  "name": "id",
                  "type": "uint256"
                },
                {
                  "internalType": "uint256",
                  "name": "precio",
                  "type": "uint256"
                },
                {
                  "internalType": "string",
                  "name": "nombre",
                  "type": "string"
                },
                {
                  "internalType": "bool",
                  "name": "estado",
                  "type": "bool"
                }
              ],
              "internalType": "struct Notaria.Documento",
              "name": "documento",
              "type": "tuple"
            },
            {
              "internalType": "address",
              "name": "owner",
              "type": "address"
            },
            {
              "internalType": "address",
              "name": "destinatario",
              "type": "address"
            },
            {
              "internalType": "uint256",
              "name": "precio",
              "type": "uint256"
            },
            {
              "internalType": "enum Notaria.EstadoDocumentoNotaria",
              "name": "estado",
              "type": "uint8"
            }
          ],
          "internalType": "struct Notaria.DocumentoNotaria",
          "name": "doc",
          "type": "tuple"
        }
      ],
      "stateMutability": "view",
      "type": "function",
      "constant": true
    },
    {
      "inputs": [
        {
          "internalType": "uint256",
          "name": "_idDocumento",
          "type": "uint256"
        },
        {
          "internalType": "address",
          "name": "_direccion",
          "type": "address"
        }
      ],
      "name": "GetDocumentoNotariaDestinatario",
      "outputs": [
        {
          "components": [
            {
              "internalType": "uint256",
              "name": "id",
              "type": "uint256"
            },
            {
              "components": [
                {
                  "internalType": "uint256",
                  "name": "id",
                  "type": "uint256"
                },
                {
                  "internalType": "uint256",
                  "name": "precio",
                  "type": "uint256"
                },
                {
                  "internalType": "string",
                  "name": "nombre",
                  "type": "string"
                },
                {
                  "internalType": "bool",
                  "name": "estado",
                  "type": "bool"
                }
              ],
              "internalType": "struct Notaria.Documento",
              "name": "documento",
              "type": "tuple"
            },
            {
              "internalType": "address",
              "name": "owner",
              "type": "address"
            },
            {
              "internalType": "address",
              "name": "destinatario",
              "type": "address"
            },
            {
              "internalType": "uint256",
              "name": "precio",
              "type": "uint256"
            },
            {
              "internalType": "enum Notaria.EstadoDocumentoNotaria",
              "name": "estado",
              "type": "uint8"
            }
          ],
          "internalType": "struct Notaria.DocumentoNotaria",
          "name": "doc",
          "type": "tuple"
        }
      ],
      "stateMutability": "view",
      "type": "function",
      "constant": true
    },
    {
      "inputs": [],
      "name": "GetOwner",
      "outputs": [
        {
          "internalType": "address",
          "name": "",
          "type": "address"
        }
      ],
      "stateMutability": "view",
      "type": "function",
      "constant": true
    }
  ],
  "bytecode": "0x6080604052600060015560006002553480156200001b57600080fd5b5060405162003aae38038062003aae8339818101604052810190620000419190620000e0565b80600360006101000a81548173ffffffffffffffffffffffffffffffffffffffff021916908373ffffffffffffffffffffffffffffffffffffffff160217905550336000806101000a81548173ffffffffffffffffffffffffffffffffffffffff021916908373ffffffffffffffffffffffffffffffffffffffff160217905550506200016e565b600081519050620000da8162000154565b92915050565b600060208284031215620000f357600080fd5b60006200010384828501620000c9565b91505092915050565b6000620001198262000134565b9050919050565b60006200012d826200010c565b9050919050565b600073ffffffffffffffffffffffffffffffffffffffff82169050919050565b6200015f8162000120565b81146200016b57600080fd5b50565b613930806200017e6000396000f3fe6080604052600436106101185760003560e01c80638da5cb5b116100a0578063c67dbe8c11610064578063c67dbe8c146103fa578063cddb534d1461043c578063d99b73d814610479578063f6556d3b146104a9578063fb699fa3146104eb5761011f565b80638da5cb5b146102fc57806395e52d9814610327578063b5732a9614610352578063b908db701461038f578063bb674f20146103ba5761011f565b80632c62c7be116100e75780632c62c7be1461020b5780633166aa9b146102275780633bfa2e241461026457806351a8cf90146102945780638d9520e6146102bf5761011f565b80630ae50a3914610124578063194e19b01461014f5780631beeba56146101915780631c03fafc146101ce5761011f565b3661011f57005b600080fd5b34801561013057600080fd5b5061013961051b565b604051610146919061328d565b60405180910390f35b34801561015b57600080fd5b5061017660048036038101906101719190612ab9565b610544565b604051610188969594939291906134a6565b60405180910390f35b34801561019d57600080fd5b506101b860048036038101906101b39190612ab9565b610698565b6040516101c59190613469565b60405180910390f35b3480156101da57600080fd5b506101f560048036038101906101f09190612a2b565b610786565b604051610202919061348b565b60405180910390f35b61022560048036038101906102209190612b47565b61079e565b005b34801561023357600080fd5b5061024e60048036038101906102499190612b0b565b61095c565b60405161025b9190613447565b60405180910390f35b61027e60048036038101906102799190612ab9565b610be3565b60405161028b91906132d1565b60405180910390f35b3480156102a057600080fd5b506102a9611081565b6040516102b691906132d1565b60405180910390f35b3480156102cb57600080fd5b506102e660048036038101906102e19190612ab9565b611153565b6040516102f391906132d1565b60405180910390f35b34801561030857600080fd5b506103116114f4565b60405161031e919061328d565b60405180910390f35b34801561033357600080fd5b5061033c611518565b604051610349919061348b565b60405180910390f35b34801561035e57600080fd5b5061037960048036038101906103749190612b0b565b61151e565b6040516103869190613447565b60405180910390f35b34801561039b57600080fd5b506103a46117a5565b6040516103b1919061348b565b60405180910390f35b3480156103c657600080fd5b506103e160048036038101906103dc9190612ab9565b6117ab565b6040516103f1949392919061350e565b60405180910390f35b34801561040657600080fd5b50610421600480360381019061041c9190612a54565b611870565b604051610433969594939291906134a6565b60405180910390f35b34801561044857600080fd5b50610463600480360381019061045e9190612a2b565b6119d1565b604051610470919061348b565b60405180910390f35b610493600480360381019061048e9190612ab9565b6119e9565b6040516104a091906132d1565b60405180910390f35b3480156104b557600080fd5b506104d060048036038101906104cb9190612a54565b611b01565b6040516104e2969594939291906134a6565b60405180910390f35b61050560048036038101906105009190612bae565b611c62565b60405161051291906132ec565b60405180910390f35b60008060009054906101000a900473ffffffffffffffffffffffffffffffffffffffff16905090565b600760205280600052604060002060009150905080600001549080600101604051806080016040529081600082015481526020016001820154815260200160028201805461059190613759565b80601f01602080910402602001604051908101604052809291908181526020018280546105bd90613759565b801561060a5780601f106105df5761010080835404028352916020019161060a565b820191906000526020600020905b8154815290600101906020018083116105ed57829003601f168201915b505050505081526020016003820160009054906101000a900460ff161515151581525050908060050160009054906101000a900473ffffffffffffffffffffffffffffffffffffffff16908060060160009054906101000a900473ffffffffffffffffffffffffffffffffffffffff16908060070154908060080160009054906101000a900460ff16905086565b6106a06127ed565b6004600083815260200190815260200160002060405180608001604052908160008201548152602001600182015481526020016002820180546106e290613759565b80601f016020809104026020016040519081016040528092919081815260200182805461070e90613759565b801561075b5780601f106107305761010080835404028352916020019161075b565b820191906000526020600020905b81548152906001019060200180831161073e57829003601f168201915b505050505081526020016003820160009054906101000a900460ff1615151515815250509050919050565b60066020528060005260406000206000915090505481565b60008054906101000a900473ffffffffffffffffffffffffffffffffffffffff1673ffffffffffffffffffffffffffffffffffffffff163373ffffffffffffffffffffffffffffffffffffffff161461082c576040517f08c379a0000000000000000000000000000000000000000000000000000000008152600401610823906133c7565b60405180910390fd5b6000825111610870576040517f08c379a000000000000000000000000000000000000000000000000000000000815260040161086790613367565b60405180910390fd5b600160008154809291906108839061378b565b919050555060405180608001604052806001548152602001848152602001838152602001821515815250600460006001548152602001908152602001600020600082015181600001556020820151816001015560408201518160020190805190602001906108f2929190612817565b5060608201518160030160006101000a81548160ff0219169083151502179055509050507f5d11aed1842005d2aad4bd5cd443eb580b0abd53c28f7b77bfeef1b321ee594e6001548484843360405161094f95949392919061355a565b60405180910390a1505050565b61096461289d565b600860008373ffffffffffffffffffffffffffffffffffffffff1673ffffffffffffffffffffffffffffffffffffffff16815260200190815260200160002060008481526020019081526020016000206040518060c0016040529081600082015481526020016001820160405180608001604052908160008201548152602001600182015481526020016002820180546109fd90613759565b80601f0160208091040260200160405190810160405280929190818152602001828054610a2990613759565b8015610a765780601f10610a4b57610100808354040283529160200191610a76565b820191906000526020600020905b815481529060010190602001808311610a5957829003601f168201915b505050505081526020016003820160009054906101000a900460ff16151515158152505081526020016005820160009054906101000a900473ffffffffffffffffffffffffffffffffffffffff1673ffffffffffffffffffffffffffffffffffffffff1673ffffffffffffffffffffffffffffffffffffffff1681526020016006820160009054906101000a900473ffffffffffffffffffffffffffffffffffffffff1673ffffffffffffffffffffffffffffffffffffffff1673ffffffffffffffffffffffffffffffffffffffff168152602001600782015481526020016008820160009054906101000a900460ff166002811115610b9f577f4e487b7100000000000000000000000000000000000000000000000000000000600052602160045260246000fd5b6002811115610bd7577f4e487b7100000000000000000000000000000000000000000000000000000000600052602160045260246000fd5b81525050905092915050565b600080610bef836123b8565b9050600081602001516020015190503373ffffffffffffffffffffffffffffffffffffffff16826060015173ffffffffffffffffffffffffffffffffffffffff1614610c70576040517f08c379a0000000000000000000000000000000000000000000000000000000008152600401610c6790613327565b60405180910390fd5b816060015173ffffffffffffffffffffffffffffffffffffffff1660086000846040015173ffffffffffffffffffffffffffffffffffffffff1673ffffffffffffffffffffffffffffffffffffffff168152602001908152602001600020600086815260200190815260200160002060060160009054906101000a900473ffffffffffffffffffffffffffffffffffffffff1673ffffffffffffffffffffffffffffffffffffffff1614610d59576040517f08c379a0000000000000000000000000000000000000000000000000000000008152600401610d50906133e7565b60405180910390fd5b808260800151610d699190613642565b3414610daa576040517f08c379a0000000000000000000000000000000000000000000000000000000008152600401610da190613307565b60405180910390fd5b60016002811115610de4577f4e487b7100000000000000000000000000000000000000000000000000000000600052602160045260246000fd5b8260a001516002811115610e21577f4e487b7100000000000000000000000000000000000000000000000000000000600052602160045260246000fd5b14610e61576040517f08c379a0000000000000000000000000000000000000000000000000000000008152600401610e5890613387565b60405180910390fd5b60026007600086815260200190815260200160002060080160006101000a81548160ff02191690836002811115610ec1577f4e487b7100000000000000000000000000000000000000000000000000000000600052602160045260246000fd5b02179055506002600960003373ffffffffffffffffffffffffffffffffffffffff1673ffffffffffffffffffffffffffffffffffffffff168152602001908152602001600020600086815260200190815260200160002060080160006101000a81548160ff02191690836002811115610f63577f4e487b7100000000000000000000000000000000000000000000000000000000600052602160045260246000fd5b0217905550600260086000846040015173ffffffffffffffffffffffffffffffffffffffff1673ffffffffffffffffffffffffffffffffffffffff168152602001908152602001600020600086815260200190815260200160002060080160006101000a81548160ff02191690836002811115611009577f4e487b7100000000000000000000000000000000000000000000000000000000600052602160045260246000fd5b0217905550816040015173ffffffffffffffffffffffffffffffffffffffff166108fc349081150290604051600060405180830381858888f19350505050158015611058573d6000803e3d6000fd5b5060011515611065611081565b1515141561107657611075612601565b5b600192505050919050565b600080600360009054906101000a900473ffffffffffffffffffffffffffffffffffffffff1673ffffffffffffffffffffffffffffffffffffffff166370a08231306040518263ffffffff1660e01b81526004016110df919061328d565b60206040518083038186803b1580156110f757600080fd5b505afa15801561110b573d6000803e3d6000fd5b505050506040513d601f19601f8201168201806040525081019061112f9190612ae2565b9050678ac7230489e80000811061114a576001915050611150565b60009150505b90565b60008061115f836123b8565b90506000600281111561119b577f4e487b7100000000000000000000000000000000000000000000000000000000600052602160045260246000fd5b8160a0015160028111156111d8577f4e487b7100000000000000000000000000000000000000000000000000000000600052602160045260246000fd5b146111e257600080fd5b3373ffffffffffffffffffffffffffffffffffffffff16816060015173ffffffffffffffffffffffffffffffffffffffff1614611254576040517f08c379a000000000000000000000000000000000000000000000000000000000815260040161124b90613427565b60405180910390fd5b60016007600085815260200190815260200160002060080160006101000a81548160ff021916908360028111156112b4577f4e487b7100000000000000000000000000000000000000000000000000000000600052602160045260246000fd5b02179055506001600960003373ffffffffffffffffffffffffffffffffffffffff1673ffffffffffffffffffffffffffffffffffffffff168152602001908152602001600020600085815260200190815260200160002060080160006101000a81548160ff02191690836002811115611356577f4e487b7100000000000000000000000000000000000000000000000000000000600052602160045260246000fd5b0217905550806060015173ffffffffffffffffffffffffffffffffffffffff1660086000836040015173ffffffffffffffffffffffffffffffffffffffff1673ffffffffffffffffffffffffffffffffffffffff168152602001908152602001600020600085815260200190815260200160002060060160009054906101000a900473ffffffffffffffffffffffffffffffffffffffff1673ffffffffffffffffffffffffffffffffffffffff1614611444576040517f08c379a000000000000000000000000000000000000000000000000000000000815260040161143b906133a7565b60405180910390fd5b600160086000836040015173ffffffffffffffffffffffffffffffffffffffff1673ffffffffffffffffffffffffffffffffffffffff168152602001908152602001600020600085815260200190815260200160002060080160006101000a81548160ff021916908360028111156114e5577f4e487b7100000000000000000000000000000000000000000000000000000000600052602160045260246000fd5b02179055506001915050919050565b60008054906101000a900473ffffffffffffffffffffffffffffffffffffffff1681565b60015481565b61152661289d565b600960008373ffffffffffffffffffffffffffffffffffffffff1673ffffffffffffffffffffffffffffffffffffffff16815260200190815260200160002060008481526020019081526020016000206040518060c0016040529081600082015481526020016001820160405180608001604052908160008201548152602001600182015481526020016002820180546115bf90613759565b80601f01602080910402602001604051908101604052809291908181526020018280546115eb90613759565b80156116385780601f1061160d57610100808354040283529160200191611638565b820191906000526020600020905b81548152906001019060200180831161161b57829003601f168201915b505050505081526020016003820160009054906101000a900460ff16151515158152505081526020016005820160009054906101000a900473ffffffffffffffffffffffffffffffffffffffff1673ffffffffffffffffffffffffffffffffffffffff1673ffffffffffffffffffffffffffffffffffffffff1681526020016006820160009054906101000a900473ffffffffffffffffffffffffffffffffffffffff1673ffffffffffffffffffffffffffffffffffffffff1673ffffffffffffffffffffffffffffffffffffffff168152602001600782015481526020016008820160009054906101000a900460ff166002811115611761577f4e487b7100000000000000000000000000000000000000000000000000000000600052602160045260246000fd5b6002811115611799577f4e487b7100000000000000000000000000000000000000000000000000000000600052602160045260246000fd5b81525050905092915050565b60025481565b60046020528060005260406000206000915090508060000154908060010154908060020180546117da90613759565b80601f016020809104026020016040519081016040528092919081815260200182805461180690613759565b80156118535780601f1061182857610100808354040283529160200191611853565b820191906000526020600020905b81548152906001019060200180831161183657829003601f168201915b5050505050908060030160009054906101000a900460ff16905084565b6009602052816000526040600020602052806000526040600020600091509150508060000154908060010160405180608001604052908160008201548152602001600182015481526020016002820180546118ca90613759565b80601f01602080910402602001604051908101604052809291908181526020018280546118f690613759565b80156119435780601f1061191857610100808354040283529160200191611943565b820191906000526020600020905b81548152906001019060200180831161192657829003601f168201915b505050505081526020016003820160009054906101000a900460ff161515151581525050908060050160009054906101000a900473ffffffffffffffffffffffffffffffffffffffff16908060060160009054906101000a900473ffffffffffffffffffffffffffffffffffffffff16908060070154908060080160009054906101000a900460ff16905086565b60056020528060005260406000206000915090505481565b6000806119f5836123b8565b905060016002811115611a31577f4e487b7100000000000000000000000000000000000000000000000000000000600052602160045260246000fd5b8160a001516002811115611a6e577f4e487b7100000000000000000000000000000000000000000000000000000000600052602160045260246000fd5b1480611aee575060006002811115611aaf577f4e487b7100000000000000000000000000000000000000000000000000000000600052602160045260246000fd5b8160a001516002811115611aec577f4e487b7100000000000000000000000000000000000000000000000000000000600052602160045260246000fd5b145b611af757600080fd5b6001915050919050565b600860205281600052604060002060205280600052604060002060009150915050806000015490806001016040518060800160405290816000820154815260200160018201548152602001600282018054611b5b90613759565b80601f0160208091040260200160405190810160405280929190818152602001828054611b8790613759565b8015611bd45780601f10611ba957610100808354040283529160200191611bd4565b820191906000526020600020905b815481529060010190602001808311611bb757829003601f168201915b505050505081526020016003820160009054906101000a900460ff161515151581525050908060050160009054906101000a900473ffffffffffffffffffffffffffffffffffffffff16908060060160009054906101000a900473ffffffffffffffffffffffffffffffffffffffff16908060070154908060080160009054906101000a900460ff16905086565b600080600460008681526020019081526020016000206040518060800160405290816000820154815260200160018201548152602001600282018054611ca790613759565b80601f0160208091040260200160405190810160405280929190818152602001828054611cd390613759565b8015611d205780601f10611cf557610100808354040283529160200191611d20565b820191906000526020600020905b815481529060010190602001808311611d0357829003601f168201915b505050505081526020016003820160009054906101000a900460ff16151515158152505090506000816000015111611d8d576040517f08c379a0000000000000000000000000000000000000000000000000000000008152600401611d8490613347565b60405180910390fd5b60026000815480929190611da09061378b565b919050555060006040518060c0016040528060025481526020018381526020013373ffffffffffffffffffffffffffffffffffffffff1681526020018573ffffffffffffffffffffffffffffffffffffffff16815260200186815260200160006002811115611e38577f4e487b7100000000000000000000000000000000000000000000000000000000600052602160045260246000fd5b8152509050806007600060025481526020019081526020016000206000820151816000015560208201518160010160008201518160000155602082015181600101556040820151816002019080519060200190611e96929190612817565b5060608201518160030160006101000a81548160ff021916908315150217905550505060408201518160050160006101000a81548173ffffffffffffffffffffffffffffffffffffffff021916908373ffffffffffffffffffffffffffffffffffffffff16021790555060608201518160060160006101000a81548173ffffffffffffffffffffffffffffffffffffffff021916908373ffffffffffffffffffffffffffffffffffffffff1602179055506080820151816007015560a08201518160080160006101000a81548160ff02191690836002811115611fa2577f4e487b7100000000000000000000000000000000000000000000000000000000600052602160045260246000fd5b0217905550905050600560003373ffffffffffffffffffffffffffffffffffffffff1673ffffffffffffffffffffffffffffffffffffffff1681526020019081526020016000206000815480929190611ffa9061378b565b9190505550600660008573ffffffffffffffffffffffffffffffffffffffff1673ffffffffffffffffffffffffffffffffffffffff168152602001908152602001600020600081548092919061204f9061378b565b919050555080600860003373ffffffffffffffffffffffffffffffffffffffff1673ffffffffffffffffffffffffffffffffffffffff1681526020019081526020016000206000600254815260200190815260200160002060008201518160000155602082015181600101600082015181600001556020820151816001015560408201518160020190805190602001906120ea929190612817565b5060608201518160030160006101000a81548160ff021916908315150217905550505060408201518160050160006101000a81548173ffffffffffffffffffffffffffffffffffffffff021916908373ffffffffffffffffffffffffffffffffffffffff16021790555060608201518160060160006101000a81548173ffffffffffffffffffffffffffffffffffffffff021916908373ffffffffffffffffffffffffffffffffffffffff1602179055506080820151816007015560a08201518160080160006101000a81548160ff021916908360028111156121f6577f4e487b7100000000000000000000000000000000000000000000000000000000600052602160045260246000fd5b021790555090505080600960008673ffffffffffffffffffffffffffffffffffffffff1673ffffffffffffffffffffffffffffffffffffffff168152602001908152602001600020600060025481526020019081526020016000206000820151816000015560208201518160010160008201518160000155602082015181600101556040820151816002019080519060200190612294929190612817565b5060608201518160030160006101000a81548160ff021916908315150217905550505060408201518160050160006101000a81548173ffffffffffffffffffffffffffffffffffffffff021916908373ffffffffffffffffffffffffffffffffffffffff16021790555060608201518160060160006101000a81548173ffffffffffffffffffffffffffffffffffffffff021916908373ffffffffffffffffffffffffffffffffffffffff1602179055506080820151816007015560a08201518160080160006101000a81548160ff021916908360028111156123a0577f4e487b7100000000000000000000000000000000000000000000000000000000600052602160045260246000fd5b02179055509050508060a00151925050509392505050565b6123c061289d565b600760008381526020019081526020016000206040518060c00160405290816000820154815260200160018201604051806080016040529081600082015481526020016001820154815260200160028201805461241c90613759565b80601f016020809104026020016040519081016040528092919081815260200182805461244890613759565b80156124955780601f1061246a57610100808354040283529160200191612495565b820191906000526020600020905b81548152906001019060200180831161247857829003601f168201915b505050505081526020016003820160009054906101000a900460ff16151515158152505081526020016005820160009054906101000a900473ffffffffffffffffffffffffffffffffffffffff1673ffffffffffffffffffffffffffffffffffffffff1673ffffffffffffffffffffffffffffffffffffffff1681526020016006820160009054906101000a900473ffffffffffffffffffffffffffffffffffffffff1673ffffffffffffffffffffffffffffffffffffffff1673ffffffffffffffffffffffffffffffffffffffff168152602001600782015481526020016008820160009054906101000a900460ff1660028111156125be577f4e487b7100000000000000000000000000000000000000000000000000000000600052602160045260246000fd5b60028111156125f6577f4e487b7100000000000000000000000000000000000000000000000000000000600052602160045260246000fd5b815250509050919050565b6000600360009054906101000a900473ffffffffffffffffffffffffffffffffffffffff1673ffffffffffffffffffffffffffffffffffffffff166370a08231306040518263ffffffff1660e01b815260040161265e919061328d565b60206040518083038186803b15801561267657600080fd5b505afa15801561268a573d6000803e3d6000fd5b505050506040513d601f19601f820116820180604052508101906126ae9190612ae2565b9050678ac7230489e800008110156126fb576040517f08c379a00000000000000000000000000000000000000000000000000000000081526004016126f290613407565b60405180910390fd5b600360009054906101000a900473ffffffffffffffffffffffffffffffffffffffff1673ffffffffffffffffffffffffffffffffffffffff1663a9059cbb33678ac7230489e800006040518363ffffffff1660e01b81526004016127609291906132a8565b602060405180830381600087803b15801561277a57600080fd5b505af115801561278e573d6000803e3d6000fd5b505050506040513d601f19601f820116820180604052508101906127b29190612a90565b507f7f1b1d4c13ec5ec7f238dce036cc6fa16068f0b9013ca915898afa496daac0ad336040516127e2919061328d565b60405180910390a150565b60405180608001604052806000815260200160008152602001606081526020016000151581525090565b82805461282390613759565b90600052602060002090601f016020900481019282612845576000855561288c565b82601f1061285e57805160ff191683800117855561288c565b8280016001018555821561288c579182015b8281111561288b578251825591602001919060010190612870565b5b509050612899919061293d565b5090565b6040518060c00160405280600081526020016128b76127ed565b8152602001600073ffffffffffffffffffffffffffffffffffffffff168152602001600073ffffffffffffffffffffffffffffffffffffffff1681526020016000815260200160006002811115612937577f4e487b7100000000000000000000000000000000000000000000000000000000600052602160045260246000fd5b81525090565b5b8082111561295657600081600090555060010161293e565b5090565b600061296d612968846135e5565b6135b4565b90508281526020810184848401111561298557600080fd5b612990848285613717565b509392505050565b6000813590506129a7816138b5565b92915050565b6000813590506129bc816138cc565b92915050565b6000815190506129d1816138cc565b92915050565b600082601f8301126129e857600080fd5b81356129f884826020860161295a565b91505092915050565b600081359050612a10816138e3565b92915050565b600081519050612a25816138e3565b92915050565b600060208284031215612a3d57600080fd5b6000612a4b84828501612998565b91505092915050565b60008060408385031215612a6757600080fd5b6000612a7585828601612998565b9250506020612a8685828601612a01565b9150509250929050565b600060208284031215612aa257600080fd5b6000612ab0848285016129c2565b91505092915050565b600060208284031215612acb57600080fd5b6000612ad984828501612a01565b91505092915050565b600060208284031215612af457600080fd5b6000612b0284828501612a16565b91505092915050565b60008060408385031215612b1e57600080fd5b6000612b2c85828601612a01565b9250506020612b3d85828601612998565b9150509250929050565b600080600060608486031215612b5c57600080fd5b6000612b6a86828701612a01565b935050602084013567ffffffffffffffff811115612b8757600080fd5b612b93868287016129d7565b9250506040612ba4868287016129ad565b9150509250925092565b600080600060608486031215612bc357600080fd5b6000612bd186828701612a01565b9350506020612be286828701612a01565b9250506040612bf386828701612998565b9150509250925092565b612c0681613698565b82525050565b612c1581613698565b82525050565b612c24816136aa565b82525050565b612c33816136aa565b82525050565b612c42816136f3565b82525050565b612c51816136f3565b82525050565b612c6081613705565b82525050565b6000612c7182613615565b612c7b8185613620565b9350612c8b818560208601613726565b612c9481613890565b840191505092915050565b6000612caa82613615565b612cb48185613631565b9350612cc4818560208601613726565b612ccd81613890565b840191505092915050565b6000612ce5604183613631565b91507f456c204d6f6e746f20656e766961646f206e6f20636f72726573706f6e64652060008301527f616c2076616c6f722064656c2070726563696f2064656c20446f63756d656e7460208301527f6f000000000000000000000000000000000000000000000000000000000000006040830152606082019050919050565b6000612d71604683613631565b91507f536f6c6f20656c2064657374696e61746172696f20707565646520416363656460008301527f65722061206c612066696e616c697a6163696f6e206465206573746520446f6360208301527f756d656e746f00000000000000000000000000000000000000000000000000006040830152606082019050919050565b6000612dfd602c83613631565b91507f456c20646f63756d656e746f206e6f2065786973746520656e206e756573747260008301527f6f7320726567697374726f7300000000000000000000000000000000000000006020830152604082019050919050565b6000612e63602483613631565b91507f456c206e6f6d62726520646562652074656e657220756e206c6172676f206d6960008301527f6e696d6f000000000000000000000000000000000000000000000000000000006020830152604082019050919050565b6000612ec9603183613631565b91507f456c20646f63756d656e746f2064656265206861626572207369646f2041636560008301527f707461646f207072657669616d656e74650000000000000000000000000000006020830152604082019050919050565b6000612f2f602c83613631565b91507f456c2064657374696e61746172696f206e6f20636f696e6369646520636f6e2060008301527f656c206465206f726967656e00000000000000000000000000000000000000006020830152604082019050919050565b6000612f95602a83613631565b91507f46756e63696f6e616c6964616420736f6c6f207065726d69746964612070617260008301527f6120656c206f776e6572000000000000000000000000000000000000000000006020830152604082019050919050565b6000612ffb604883613631565b91507f536f6c6f20656c2064657374696e61746172696f20707565646520416363656460008301527f65722061206c612066696e616c697a6163696f6e206465206573746520446f6360208301527f756d656e746f20320000000000000000000000000000000000000000000000006040830152606082019050919050565b6000613087601983613631565b91507f4e6f2068617920737566696369656e74657320746f6b656e73000000000000006000830152602082019050919050565b60006130c7602f83613631565b91507f536f6c6f20656c2064657374696e61746172696f20707565646520616365707460008301527f617220656c20446f63756d656e746f00000000000000000000000000000000006020830152604082019050919050565b600060c083016000830151613138600086018261326f565b506020830151848203602086015261315082826131a9565b91505060408301516131656040860182612bfd565b5060608301516131786060860182612bfd565b50608083015161318b608086018261326f565b5060a083015161319e60a0860182612c39565b508091505092915050565b60006080830160008301516131c1600086018261326f565b5060208301516131d4602086018261326f565b50604083015184820360408601526131ec8282612c66565b91505060608301516132016060860182612c1b565b508091505092915050565b6000608083016000830151613224600086018261326f565b506020830151613237602086018261326f565b506040830151848203604086015261324f8282612c66565b91505060608301516132646060860182612c1b565b508091505092915050565b613278816136e9565b82525050565b613287816136e9565b82525050565b60006020820190506132a26000830184612c0c565b92915050565b60006040820190506132bd6000830185612c0c565b6132ca6020830184612c57565b9392505050565b60006020820190506132e66000830184612c2a565b92915050565b60006020820190506133016000830184612c48565b92915050565b6000602082019050818103600083015261332081612cd8565b9050919050565b6000602082019050818103600083015261334081612d64565b9050919050565b6000602082019050818103600083015261336081612df0565b9050919050565b6000602082019050818103600083015261338081612e56565b9050919050565b600060208201905081810360008301526133a081612ebc565b9050919050565b600060208201905081810360008301526133c081612f22565b9050919050565b600060208201905081810360008301526133e081612f88565b9050919050565b6000602082019050818103600083015261340081612fee565b9050919050565b600060208201905081810360008301526134208161307a565b9050919050565b60006020820190508181036000830152613440816130ba565b9050919050565b600060208201905081810360008301526134618184613120565b905092915050565b60006020820190508181036000830152613483818461320c565b905092915050565b60006020820190506134a0600083018461327e565b92915050565b600060c0820190506134bb600083018961327e565b81810360208301526134cd818861320c565b90506134dc6040830187612c0c565b6134e96060830186612c0c565b6134f6608083018561327e565b61350360a0830184612c48565b979650505050505050565b6000608082019050613523600083018761327e565b613530602083018661327e565b81810360408301526135428185612c9f565b90506135516060830184612c2a565b95945050505050565b600060a08201905061356f600083018861327e565b61357c602083018761327e565b818103604083015261358e8186612c9f565b905061359d6060830185612c2a565b6135aa6080830184612c0c565b9695505050505050565b6000604051905081810181811067ffffffffffffffff821117156135db576135da613861565b5b8060405250919050565b600067ffffffffffffffff821115613600576135ff613861565b5b601f19601f8301169050602081019050919050565b600081519050919050565b600082825260208201905092915050565b600082825260208201905092915050565b600061364d826136e9565b9150613658836136e9565b9250827fffffffffffffffffffffffffffffffffffffffffffffffffffffffffffffffff0382111561368d5761368c6137d4565b5b828201905092915050565b60006136a3826136c9565b9050919050565b60008115159050919050565b60008190506136c4826138a1565b919050565b600073ffffffffffffffffffffffffffffffffffffffff82169050919050565b6000819050919050565b60006136fe826136b6565b9050919050565b6000613710826136e9565b9050919050565b82818337600083830152505050565b60005b83811015613744578082015181840152602081019050613729565b83811115613753576000848401525b50505050565b6000600282049050600182168061377157607f821691505b6020821081141561378557613784613832565b5b50919050565b6000613796826136e9565b91507fffffffffffffffffffffffffffffffffffffffffffffffffffffffffffffffff8214156137c9576137c86137d4565b5b600182019050919050565b7f4e487b7100000000000000000000000000000000000000000000000000000000600052601160045260246000fd5b7f4e487b7100000000000000000000000000000000000000000000000000000000600052602160045260246000fd5b7f4e487b7100000000000000000000000000000000000000000000000000000000600052602260045260246000fd5b7f4e487b7100000000000000000000000000000000000000000000000000000000600052604160045260246000fd5b6000601f19601f8301169050919050565b600381106138b2576138b1613803565b5b50565b6138be81613698565b81146138c957600080fd5b50565b6138d5816136aa565b81146138e057600080fd5b50565b6138ec816136e9565b81146138f757600080fd5b5056fea2646970667358221220ed573a9b61123d5ae1fe9a16d3d8cff5b8909c7da624654c3d18b6349f5702dc64736f6c63430008000033",
  "immutableReferences": {},
  "source": "// SPDX-License-Identifier: MIT\r\npragma solidity ^0.8.0;\r\n\r\nimport \"./CLPToken.sol\";\r\n\r\ncontract Notaria  {\r\n    address public owner;\r\n    uint public documentsCount = 0;\r\n    uint public documentosNotariaCount = 0;\r\n    IERC20 private token;\r\n    enum EstadoDocumentoNotaria{ ABIERTO, ACEPTADO, FINALIZADO }\r\n\r\n    struct Documento{ \r\n        uint id;\r\n        uint precio;\r\n        string nombre;\r\n        bool estado;\r\n    }\r\n\r\n    struct DocumentoNotaria{\r\n        uint id;\r\n        Documento documento;\r\n        address owner;\r\n        address destinatario;\r\n        uint precio;\r\n        EstadoDocumentoNotaria estado;\r\n    }\r\n\r\n    mapping(uint => Documento) public documentos;\r\n\r\n    mapping(address => uint) public totalDocumentosEmisor;\r\n    mapping(address => uint) public totalDocumentosDestinatario;\r\n    \r\n    mapping(uint => DocumentoNotaria) public documentosNotaria;\r\n    mapping(address => mapping(uint => DocumentoNotaria)) public documentosNotariaEmisor;\r\n    mapping(address => mapping(uint => DocumentoNotaria)) public documentosNotariaDestinatario;\r\n    \r\n    event DocumentoAdded(uint id, uint precio, string nombre, bool estado, address owner);\r\n    event DocumentoNotariaAdded(uint id, Documento documento, string nombre,  address owner, uint precio);\r\n    event DocumentoComprado(uint id, address owner);\r\n    event premioTokenDado(address recipient);    \r\n\r\n    constructor(IERC20 _token) {\r\n        token = _token;\r\n        owner = msg.sender;  \r\n    }\r\n\r\n    function EnviarPremioToken() private {\r\n        uint256 amountToWithDrawal = token.balanceOf(address(this));\r\n        require(amountToWithDrawal >= 10000000000000000000, \"No hay suficientes tokens\");\r\n        token.transfer(msg.sender, 10000000000000000000);   \r\n        emit premioTokenDado(msg.sender);\r\n    } \r\n\r\n    function ValidaDisponibilidadPremio() public view returns (bool){\r\n        uint256 amountToWithDrawal = token.balanceOf(address(this));\r\n        if(amountToWithDrawal >= 10000000000000000000){\r\n            return true;\r\n        }else{\r\n            return false;\r\n        }\r\n    }\r\n\r\n    function AddDocumento(uint _precio, string memory _nombre, bool _estado) public payable{\r\n        require(msg.sender == owner, \"Funcionalidad solo permitida para el owner\");\r\n        require(bytes(_nombre).length > 0, \"El nombre debe tener un largo minimo\");\r\n        documentsCount++;\r\n        documentos[documentsCount] = Documento(documentsCount, _precio,_nombre,_estado);       \r\n        \r\n        emit DocumentoAdded(documentsCount,_precio, _nombre, _estado, msg.sender);\r\n    }\r\n\r\n    function ValidaDirecciones(address _destinatario) internal view returns (bool)\r\n    {\r\n        require(msg.sender != address(0), \"El destinatario debe ser una direccion valida\");\r\n        require(_destinatario != address(0), \"El destinatario debe ser una direccion valida\");\r\n        require(msg.sender != _destinatario, \"El emisor del documento debe ser distinto al destinatario\");\r\n        return true;\r\n    }\r\n    \r\n    function AddDocumentoNotaria(uint _idDocumento, uint _precio, address _destinatario) public payable returns(EstadoDocumentoNotaria){\r\n\r\n        Documento memory doc = documentos[_idDocumento];\r\n        require(doc.id > 0, \"El documento no existe en nuestros registros\");\r\n        documentosNotariaCount++;\r\n        DocumentoNotaria memory docNotaria = DocumentoNotaria(documentosNotariaCount, doc, msg.sender, _destinatario, _precio, EstadoDocumentoNotaria.ABIERTO);\r\n        documentosNotaria[documentosNotariaCount] = docNotaria;\r\n\r\n        totalDocumentosEmisor[msg.sender]++;\r\n        totalDocumentosDestinatario[_destinatario]++;\r\n        documentosNotariaEmisor[msg.sender][documentosNotariaCount] = docNotaria;\r\n        documentosNotariaDestinatario[_destinatario][documentosNotariaCount] = docNotaria;   \r\n \r\n        return docNotaria.estado;\r\n    }\r\n    \r\n    function AceptaDocumentoNotaria(uint _idDocumento) public returns (bool){        \r\n        DocumentoNotaria memory _docNotaria = GetDocumentoNotaria(_idDocumento);        \r\n        require(_docNotaria.estado == EstadoDocumentoNotaria.ABIERTO);\r\n        require(_docNotaria.destinatario == msg.sender, \"Solo el destinatario puede aceptar el Documento\");        \r\n        documentosNotaria[_idDocumento].estado = EstadoDocumentoNotaria.ACEPTADO;        \r\n        documentosNotariaDestinatario[msg.sender][_idDocumento].estado = EstadoDocumentoNotaria.ACEPTADO;        \r\n        require(documentosNotariaEmisor[_docNotaria.owner][_idDocumento].destinatario == _docNotaria.destinatario, \"El destinatario no coincide con el de origen\");\r\n        documentosNotariaEmisor[_docNotaria.owner][_idDocumento].estado = EstadoDocumentoNotaria.ACEPTADO;       \r\n        return true;\r\n    }\r\n    \r\n    function FinalizaDocumentoNotaria(uint _idDocumento) public payable returns (bool){        \r\n        DocumentoNotaria memory _docNotaria = GetDocumentoNotaria(_idDocumento);\r\n        uint precioDoc = _docNotaria.documento.precio;\r\n        require(_docNotaria.destinatario == msg.sender, \"Solo el destinatario puede Acceder a la finalizacion de este Documento\");\r\n        require(documentosNotariaEmisor[_docNotaria.owner][_idDocumento].destinatario == _docNotaria.destinatario, \"Solo el destinatario puede Acceder a la finalizacion de este Documento 2\");\r\n        require(msg.value == _docNotaria.precio + precioDoc, \"El Monto enviado no corresponde al valor del precio del Documento\");\r\n        require(_docNotaria.estado == EstadoDocumentoNotaria.ACEPTADO, \"El documento debe haber sido Aceptado previamente\");              \r\n        \r\n        documentosNotaria[_idDocumento].estado = EstadoDocumentoNotaria.FINALIZADO;\r\n        documentosNotariaDestinatario[msg.sender][_idDocumento].estado = EstadoDocumentoNotaria.FINALIZADO;\r\n        documentosNotariaEmisor[_docNotaria.owner][_idDocumento].estado = EstadoDocumentoNotaria.FINALIZADO;\r\n\r\n        payable(_docNotaria.owner).transfer(msg.value);  \r\n\r\n        if(ValidaDisponibilidadPremio() == true){\r\n            EnviarPremioToken();\r\n        }     \r\n        return true;\r\n    }\r\n    \r\n    function RechazaDocumentoNotaria(uint _idDocumento) public payable returns (bool){\r\n        DocumentoNotaria memory _docNotaria = GetDocumentoNotaria(_idDocumento);\r\n        require(_docNotaria.estado == EstadoDocumentoNotaria.ACEPTADO || _docNotaria.estado == EstadoDocumentoNotaria.ABIERTO);\r\n        return true;\r\n    }\r\n    \r\n    function GetDocumento(uint _idDocumento) public view returns(Documento memory doc){\r\n        doc = documentos[_idDocumento];\r\n        return doc;\r\n    }\r\n    \r\n    function GetDocumentoNotaria(uint _idDocumento) internal virtual view returns(DocumentoNotaria memory doc){\r\n        doc = documentosNotaria[_idDocumento];\r\n        return doc;\r\n    }\r\n    \r\n    function GetDocumentoNotariaEmisor(uint _idDocumento, address _direccion) public view returns(DocumentoNotaria memory doc){\r\n        doc = documentosNotariaEmisor[_direccion][_idDocumento];\r\n        return doc;\r\n    }\r\n    \r\n    function GetDocumentoNotariaDestinatario(uint _idDocumento, address _direccion) public view returns(DocumentoNotaria memory doc){\r\n        doc = documentosNotariaDestinatario[_direccion][_idDocumento];\r\n        return doc;\r\n    } \r\n    \r\n    function GetOwner() public view returns (address){        \r\n        return owner;\r\n    }\r\n\r\n    modifier isOwner(){\r\n        require(msg.sender == owner);\r\n        _;\r\n    } \r\n\r\n    receive() external payable {} \r\n}",
  "sourcePath": "D:/Curso Solidity Avanzado BlockChain Academy/proyecto-react/contracts/Notaria.sol",
  "compiler": {
    "name": "solc",
    "version": "0.8.0+commit.c7dfd78e.Emscripten.clang"
  },
  "schemaVersion": "3.3.4",
  "updatedAt": "2021-08-15T00:24:33.853Z",
  "networkType": "ethereum",
  "devdoc": {
    "kind": "dev",
    "methods": {},
    "version": 1
  },
  "userdoc": {
    "kind": "user",
    "methods": {},
    "version": 1
  }
}